:0400000002003F3289
:03000B0002097F68
:200098007509FC750A60750BDA750CF2750D66750EB6750FBE7510E07511FE7512F67513D1
:0400B80001751400BA
:0300BF0002000E2E
:03000E000200C22B
:2000C2001208A3E4F525F5267B157C007D40C005C004C00374F9C0E07414C0E07480C0E06A
:2000E200120C1315811581158174FBC0E07414C0E07480C0E0120C13158115811581741EBB
:20010200C0E07415C0E07480C0E0120C13158115811581744AC0E07415C0E07480C0E01260
:200122000C13158115811581D003D004D005209D030205B4AA997F00C007C005C004C00310
:20014200C002C025C026C002C007747DC0E07415C0E07480C0E0120C13E58124F9F581D03F
:2001620002D003D004D005D007E4BA0A04BF000104FE7006BA0D39BF0036E525452670303A
:20018200F571757210F57390001575F040120B0275710075720475730090002775F0401208
:2001A2000B027B157C007D40E4F525F526020130EE700BBA0D05BF00028003020541C37423
:2001C20001952574808526F063F08095F040030205418B828C838DF0E4120B21F533F534E4
:2001E200F535F536C3E5339404E53464809480505DE5352427F537E533453470047E1580CE
:20020200027E008E38753900753A40753F95754015754180853882853983853AF0120A1451
:2002220085823885833985F03AA837A63808A63908A63AE5384539601574032535F535E412
:200242003536F5360533E4B5339A0534809685273885283985293AE5384539700302050F43
:20026200C038C039C03A7497C0E07415C0E07480C0E0120C13E58124FAF581C02AC02BC069
:200282002C74A7C0E07415C0E07480C0E0120C13E58124FAF5817571B77572157573808507
:2002A20027828528838529F0120B92E5828583F045F07058852A38852B39852C3AE538459D
:2002C20039601E853882853983853AF0120794858238858339AE3853060FE58054F04EF5CF
:2002E20080858038753900740F5538F538753900C038C03974BBC0E07415C0E07480C0E029
:20030200120C13E58124FBF58102050F7571C77572157573808527828528838529F0120B6F
:2003220092E5828583F045F0702A85A038F53974035538F538753900C038C03974CAC0E0C2
:200342007415C0E07480C0E0120C13E58124FBF58102050F7571D57572157573808527824F
:200362008528838529F0120B92E5828583F045F07021850838F539C038C03974DDC0E07490
:2003820015C0E07480C0E0120C13E58124FBF58102050F7571ED75721575738085278285E6
:2003A20028838529F0120B92E5828583F045F07046852A38852B39852C3AE538453960152E
:2003C200853882853983853AF0120794858238858339853880858038753900C038C0397432
:2003E200F0C0E07415C0E07480C0E0120C13E58124FBF58102050F7571FB75721575738027
:200402008527828528838529F0120B92E5828583F045F07046852A38852B39852C3AE5380D
:2004220045396015853882853983853AF0120794858238858339853890859038753900C063
:2004420038C03974FEC0E07415C0E07480C0E0120C13E58124FBF58102050F757109757282
:20046200167573808527828528838529F0120B92E5828583F045F0705C852A82852B838508
:200482002CF012080F8582388583397401B5380614B53902800280057514018017852A82D0
:2004A200852B83852CF012080FE5828583F045F07002F514851438753900C038C039740F3B
:2004C200C0E07416C0E07480C0E0120C13E58124FBF58180388527828528838529F01214B6
:2004E200D9602A741EC0E07415C0E07480C0E0120C13158115811581744AC0E07415C0E02E
:200502007480C0E0120C1315811581158175710075721075730090001575F040120B0275AF
:20052200710075720475730090002775F040120B027B157C007D40E4F525F526020130BA2B
:200542000856BF0053C005C004C003741DC0E07416C0E07480C0E0120C13158115811581FB
:20056200D003D004D0057415C0E07400C0E07440C0E08B828C838DF012001115811581156F
:200582008170030201301BBBFF011C8B828C838DF0E4120B210201308B828C838DF0EA12BD
:2005A2000B21A3AB82AC830525E4B5250205260201307401B51402800302078A74F62508D9
:2005C200403FE580543F4440F580850990C005C004C00312088EE580543F44C0F580E580C1
:2005E200543F4480F580E5082409F9879012088ED003D004D005E580543F44C0F58002016B
:200602003074F62508504774EC25084041E580543F4440F580850A90C005C004C0031208F6
:200622008EE580543F44C0F580E580543F4480F580E50824F62409F9879012088ED003D0F9
:2006420004D005E580543F44C0F58002013074EC2508504774E225084041E580543F444077
:20066200F580850B90C005C004C00312088EE580543F44C0F580E580543F4480F580E50860
:2006820024EC2409F9879012088ED003D004D005E580543F44C0F58002013074E225085070
:2006A2004774D825084041E580543F4440F580850C90C005C004C00312088EE580543F44B5
:2006C200C0F580E580543F4480F580E50824E22409F9879012088ED003D004D005E58054A5
:2006E2003F44C0F58002013074D82508504774CE25084041E580543F4440F580850D90C03A
:2007020005C004C00312088EE580543F44C0F580E580543F4480F580E50824D82409F9876B
:200722009012088ED003D004D005E580543F44C0F58002013074CE2508400302013074C442
:2007420025085003020130E580543F4440F580850E90C005C004C00312088EE580543F44A0
:20076200C0F580E580543F4480F580E50824CE2409F9879012088ED003D004D005E5805418
:200782003F44C0F58002013053803F75900002013022AD82AE83AFF0E4F571F572ED4E60B5
:2007A200658D828E838FF01214D9FA6059EA24C640278A007900E824D0F8E934FFF9AB713E
:2007C200E572C454F0CBC4CB6BCB54F0CB6BFCEB28F571EC39F572802653025F7C0074C99A
:2007E2002AFA74FF3CFCAB71E572C454F0CBC4CB6BCB54F0CB6BF9EB2AF571E93CF5720D96
:20080200BD009A0E809785718285728322AD82AE83AFF0E4F571F572F573F574ED4E6052D8
:200822008D828E838FF01214D9F86046B82D0875730175740080347A00E824D0F8EA34FF9C
:20084200FAA971E572C40354F8C9C403C969C954F8C969FCE928F8EC3AFAE5712571FBE51E
:200862007233FCEB28F571EC3AF5720DBD00AD0E80AAE5734574600BC3E49571FEE495720E
:20088200FF8004AE71AF728E828F83227E887F13EE24FFFCEF34FFFD8C068D07EC4D70F0CC
:0108A2002233
:2014F9000A003E20433532206F6E20465047412070726F6A656374202D2D204635323020D8
:20151900636A680A003E2076616C696420636F6D6D616E64733A206C6564203C6865783E25
:201539002C2073772C207365636F6E64732C200A003E2076616C696420636F6D6D616E645E
:20155900733A20656E6C6364203C6865783E2C205030203C6865783E2C205031203C68651F
:20157900783E0A003E207278203D20307825303278206E756D203D2025640A0020003E2028
:20159900617267765B305D203D2025730A003E20617267765B315D203D2025730A006C6594
:2015B90064003E206C6564203D2025780A007377003E207377203D2025780A007365636FF7
:2015D9006E6473003E207365636F6E6473203D2025640A005030003E205030203D202564EC
:2015F9000A005031003E205031203D2025640A00656E6C6364003E20656E6C6364203D2071
:1116190025640A003E206261636B73706163650A0028
:0300BC00753B0091
:2008A30075080090C3501209297582011209767582011209207582011209462212094FAE82
:2008C30082AF837D007C00757132E4F572F573F5748E828F838DF0EC1209AFAC82AD83AED3
:2008E300F0FF8508717572009003E8C007C006C005C004120B75AA82AB83D004D005D00625
:20090300D0078A00EBF93395E0FAFBE82CFCE93DFDEA3EFEEB3F8C828D838EF022E58254F6
:200923000124FF92AF22AE82AF838E048F05BCFF05BDFF0280088F8F8E8ED28C8002C28C37
:20094300D28822E582540124FF928D22858D71858C72858C73E573B572028006858D71855F
:200963008C72AF717E00AC727D00EC4EF582ED4FF58322E582540124FF92A922C0E0C0D04A
:20098300D288053B743BB508057508008005E50804F508D0D0D0E032AE82309CFD8E992295
:0C09A300309DFDAE997F008E828F832274
:2009AF00FB7A20E4FCFDFEFFE5822582F582E58333F583E5F033F5F0EB33FB4017DAE98081
:2009CF0042E5822582F582E58333F583E5F033F5F0EB33FBEC33FCED33FDEE33FEEF33FFB0
:2009EF00EC9571ED9572EE9573EF95744013EC9571FCED9572FDEE9573FEEF9574FF438232
:050A0F0001DABEEB223C
:200A1400AD82AE83AFF0ED4E60068D3C8E3D8F3EE53C453D7006900000F5F022AD3CAE3D3D
:200A3400AF3E8D828E838FF01214D96031AD3CAE3DAF3E8D828E838FF01214D9F571853FFD
:200A5400828540838541F0120B3CAD82AE83AFF0ED4E600A053CE4B53CC2053D80BEAD3CC4
:200A7400AE3DAF3EAA3CAB3DAC3E8A828B838CF01214D96059AA3CAB3DAC3E8A828B838C26
:200A9400F01214D9F571853F828540838541F0C007C006C005120B3CAA82AB83D005D006F9
:200AB400D007EA4B601EAA3CAB3DAC3E8A828B838CF0E4120B21053CB53C02053D8D828E15
:200AD400838FF022053CE4B53C9A053D8096E4F53CF53DF53E8D828E838FF01214D9600757
:0E0AF4008D828E838FF02290000075F000221C
:06006E00E478FFF6D8FD66
:1F0B0200AC82AD83AE72AF73BE0004EF600C1F0FE571120B21A3DEFADFF88C828D8322C3
:20004C007900E94400601B7A00901635780175A000E493F2A308B8000205A0D9F4DAF2750F
:02006C00A0FFF3
:1B0B210020F71130F6138883A88220F509F6A8837583002280FEF280F5F022D3
:200B3C00AD82AE83AFF08D828E838FF01214D9FC600DECB5710280070DBD00EA0E80E78D42
:190B5C00828E838FF01214D9B571078D828E838FF02290000075F000226A
:1D0B7500E5828571F0A4C582C0F08572F0A4D0F025F0C5838571F0A42583F5832207
:200B9200AD82AE83AFF0AA71AB72AC738D828E838FF01214D9F879008A828B838CF0121422
:200BB200D9F574C002C003C004AB747C00E8C39BF8E99CF988758976D004D003D002E8499B
:190BD2007010E574600C0DBD00010E0ABA00BD0B80BA857582857683220A
:200074007800E84400600A790175A000E4F309D8FC7800E84400600C7900900001E4F0A38A
:04009400D8FCD9FAC1
:200BEB00C0708581707E008E8312099BD0702285825385835485F055E4F550F551F55285E2
:200C0B004256900BEB020CD9C070E581F57024FBFF8F56E4F550F551F552E57024FBF8861E
:100C2B0053088654088655900BEB120CD9D07022C2
:200C3B00AF82C046C047C048120C488007C044C0458F8222158115811581054EE4B54E022C
:200C5B00054F22AF8274302FFF24C6500B74072FFFE54360034307208F82020C3BE582FF5D
:200C7B00C4540FF582C007120C5ED007740F5FF582020C5E858271AB49AC4AAD4BAE4CAADE
:200C9B004D7573208A07EF2FF572EE2354014572FAEB2BFBEC33FCED33FDEE33FEC3EA950D
:200CBB00714008EAC39571FA430301E57314FF8F7370D18B498C4A8D4B8E4C8A4D22858262
:200CDB0044858345855046855147855248E4F54EF54FAD53AE54AF558D828E838FF01214DB
:200CFB00D9FC74012DF553E43EF5548F55ECFF70030214BABF250280030214B27E007D0071
:200D1B008E578E587A007B008E597C008E5AE4F562F563755BFF755CFF855364855465857C
:200D3B0055668564828565838566F01214D9F567A38582648583658564538565548566559A
:200D5B007425B56708856782120C3B808574D025674003020E1BE56724C65003020E1B7489
:200D7B00FFB55B55B55C5285627185637290000AC006C005C004C003C002120B7585826870
:200D9B00858369D002D003D004D005D00685676A756B00E56A2568F56AE56B3569F56BE5FF
:200DBB006A24D0F562E56B34FFF563E56245636003020D3D7D01020D3D855B71855C7290EC
:200DDB00000AC006C005C004C003C002120B7585826A85836BD002D003D004D005D00685FB
:200DFB006768756900E568256AF56AE569356BF56BE56A24D0F55BE56B34FFF55C020D3DEF
:200E1B00742EB5671574FFB55B05B55C028003020D3DE4F55BF55C020D3D749F2567500EAC
:200E3B00E567248540085367DF75430180037543007420B56703020EE7742BB56703020E55
:200E5B00E1742DB5670280797442B56703020EED7443B56703020EF87444B56703021145FF
:200E7B007446B5670302115B7448B56703020D3D7449B56703021145744AB56703020D3D8C
:200E9B00744CB567028050744FB5670302114C7450B567030210907453B567028076745420
:200EBB00B56703020D3D7455B567030211517458B56703021156745AB56703020D3D0211C0
:200EDB005F7E01020D3D755701020D3D755801020D3D7B01020D3D755901020D3DEB600A62
:200EFB00E55614F98956876A800DE55624FEF568856856A968876A856A82C006C005C00473
:200F1B00C003C002120C3BD002D003D004D005D006021181E55624FDF56A856A56A96A8786
:200F3B0064098765098766191985644985654A85664B8564828565838566F0C006C005C07B
:200F5B0004C003C0021214C185826A85836BD002D003D004D005D00674FFB55B09B55C065B
:200F7B00856A5B856B5CEE704FC3E56A9562E56B95635044E562C3956AF568E563956BF58B
:200F9B0069856864856965156874FFB568021569E5644565601C758220C006C005C004C007
:200FBB0003C002120C3BD002D003D004D005D00680CF856862856963855B68855C69854985
:200FDB0082854A83854BF01214D9F56485645F604FC3E4956874808569F063F08095F050F5
:200FFB003F156874FFB568021569855F82C006C005C004C003C002120C3BD002D003D004FE
:20101B00D005D006854964854A65854B660564E4B56402056585644985654A85664B809EE2
:20103B00EE7003021181C3E56A9562E56B95634003021181E562C3956AF56AE563956BF5D3
:20105B006B856A68856B69156A74FFB56A02156BE5684569700302117B758220C006C00529
:20107B00C004C003C002120C3BD002D003D004D005D00680CCE55624FDF568856856A96836
:20109B008764098765098766191985644985654A85664B854B6074802560500575684380F3
:2010BB001974A025605005756850800E74C0256050057568498003756858856882C006C072
:2010DB0005C004C003C002120C3B75823A120C3B758230120C3B758278120C3BD002D003D7
:2010FB00D004D005D0067449B5680280217450B56802801A854A82C006C005C004C003C039
:20111B0002120C78D002D003D004D005D006854982C006C005C004C003C002120C78D0026C
:20113B00D003D004D005D006803C7A01755A0A8035755A088030755A0A802B755A108026ED
:20115B007C018022856782C006C005C004C003C002120C3BD002D003D004D005D006800610
:20117B00856A62856B63EC6068E55624FCFC8C568C01876C09876D09876E09876F191919FE
:20119B00856C49856D4A856E4B856F4C75492A754A16754B8085496C854A6D854B6E74011A
:2011BB00256CF564E4356DF565856E6685644985654A85664B856C82856D83856EF0121464
:2011DB00D9FC8C6C7003020CED856C82120C3B80C4E55A7003020CEDEB603FE55614F989A1
:2011FB005687048C6C756D00756E00756F00856C49856D4A856E4B856F4CEA600302129E5F
:20121B0085496C756D00756E00756F00856C49856D4A856E4B856F4C8069E5596025E556F5
:20123B0024FCFC8C568C01876C09876D09876E09876F191919856C49856D4A856E4B856F28
:20125B004C8040E55624FEFC8C568C018703098704198B6CECF56D3395E0F56EF56F856CC3
:20127B0049856D4A856E4B856F4CEA701685496C854A6DF56EF56F856C49856D4A856E4BEF
:20129B00856F4CEA602AE54C30E723C3E49549F56CE4954AF56DE4954BF56EE4954CF56FB9
:2012BB00856C49856D4A856E4B856F4C80027A007C01797CE4F56CF56D754D00855A82C027
:2012DB0006C005C004C002C001120C8FD001D002D004D005D006EC700DE54DC4F56AE7FB72
:2012FB00456AF7198002A74D056CE4B56C02056DECB40100E433FCE549454A454B454C70B2
:20131B00B88961856C5D856D5EE56245637005756201F563ED7043EE704085626C85636DF8
:20133B00AB5D0B8B6A756B00C3E56A956CE56B956D5021758220C006C005C004C002120C8E
:20135B003BD002D004D005D006156C74FFB56C02156D80CC856C62856D63EA601D75822DCE
:20137B00C006C005C004120C3BD004D005D006156274FFB5620215638046E55D455E604065
:20139B00E557601D75822BC006C005C004120C3BD004D005D006156274FFB5620215638035
:2013BB001FE558601B758220C006C005C004120C3BD004D005D006156274FFB56202156382
:2013DB00EE703C85626C85636DAA6CAB6D156C74FFB56C02156DC3E55D9AE55E9B5041EDEE
:2013FB0060067A307B0080047A207B008A82C006C005C004120C3BD004D005D00680CAC36E
:20141B00E55D9562E55E9563500FE562C3955DF56AE563955EF56B800DE4F56AF56B800632
:20143B00856C6A856D6BA961855D6C855E6DAA6CAD6D156C74FFB56C02156DEA4D602EECB7
:20145B00B40100E433FC700A09E7C4540FFD8D4D80078705740F5DF54D854D82C006C0042E
:20147B00C001120C5ED001D004D00680C1EE7003020CEDAD6AAE6B8D038E041DBDFF011EB2
:20149B00EB4C7003020CED758220C006C005120C3BD005D00680E08F82120C3B020CED859C
:0614BB004E82854F8322E2
:0B162A003C4E4F20464C4F41543E0008
:1814C100AA82AB831214D96003A380F8C3E5829AF582E5839BF5832264
:20001100E58124FCC3C8C0E0C082E608467006E5824583601218E58296F58208E5839642BD
:1B0031008208E5F0964582D082C8D0E0C82275817C1214F5E582600302000EDD
:1C14D90020F71430F6148883A88220F507E6A88375830022E280F7E49322E02222
:0414F50075820022DA
:00000001FF
